{
  "_format": "hh-sol-artifact-1",
  "contractName": "UniDAO",
  "sourceName": "contracts/UniDAO.sol",
  "abi": [
    {
      "inputs": [
        {
          "internalType": "address",
          "name": "_token",
          "type": "address"
        },
        {
          "internalType": "uint256",
          "name": "_initialQuorum",
          "type": "uint256"
        },
        {
          "internalType": "address",
          "name": "_treasury",
          "type": "address"
        },
        {
          "internalType": "uint256",
          "name": "_voteFee",
          "type": "uint256"
        },
        {
          "internalType": "address",
          "name": "_registrar",
          "type": "address"
        }
      ],
      "stateMutability": "nonpayable",
      "type": "constructor"
    },
    {
      "anonymous": false,
      "inputs": [
        {
          "indexed": true,
          "internalType": "uint256",
          "name": "id",
          "type": "uint256"
        },
        {
          "indexed": false,
          "internalType": "enum UniDAO.ProposalType",
          "name": "proposalType",
          "type": "uint8"
        },
        {
          "indexed": false,
          "internalType": "string",
          "name": "title",
          "type": "string"
        }
      ],
      "name": "ProposalCreated",
      "type": "event"
    },
    {
      "anonymous": false,
      "inputs": [
        {
          "indexed": true,
          "internalType": "uint256",
          "name": "id",
          "type": "uint256"
        },
        {
          "indexed": false,
          "internalType": "bool",
          "name": "passed",
          "type": "bool"
        }
      ],
      "name": "ProposalFinalized",
      "type": "event"
    },
    {
      "anonymous": false,
      "inputs": [
        {
          "indexed": true,
          "internalType": "address",
          "name": "registrar",
          "type": "address"
        }
      ],
      "name": "RegistrarUpdated",
      "type": "event"
    },
    {
      "anonymous": false,
      "inputs": [
        {
          "indexed": true,
          "internalType": "address",
          "name": "treasury",
          "type": "address"
        }
      ],
      "name": "TreasuryUpdated",
      "type": "event"
    },
    {
      "anonymous": false,
      "inputs": [
        {
          "indexed": true,
          "internalType": "uint256",
          "name": "id",
          "type": "uint256"
        },
        {
          "indexed": false,
          "internalType": "address",
          "name": "voter",
          "type": "address"
        },
        {
          "indexed": false,
          "internalType": "bool",
          "name": "support",
          "type": "bool"
        }
      ],
      "name": "VoteCast",
      "type": "event"
    },
    {
      "anonymous": false,
      "inputs": [
        {
          "indexed": false,
          "internalType": "uint256",
          "name": "newFee",
          "type": "uint256"
        }
      ],
      "name": "VoteFeeUpdated",
      "type": "event"
    },
    {
      "inputs": [
        {
          "internalType": "uint256",
          "name": "proposalId",
          "type": "uint256"
        }
      ],
      "name": "finalize",
      "outputs": [],
      "stateMutability": "nonpayable",
      "type": "function"
    },
    {
      "inputs": [
        {
          "internalType": "uint256",
          "name": "",
          "type": "uint256"
        },
        {
          "internalType": "address",
          "name": "",
          "type": "address"
        }
      ],
      "name": "hasVoted",
      "outputs": [
        {
          "internalType": "bool",
          "name": "",
          "type": "bool"
        }
      ],
      "stateMutability": "view",
      "type": "function"
    },
    {
      "inputs": [],
      "name": "minQuorum",
      "outputs": [
        {
          "internalType": "uint256",
          "name": "",
          "type": "uint256"
        }
      ],
      "stateMutability": "view",
      "type": "function"
    },
    {
      "inputs": [],
      "name": "proposalCount",
      "outputs": [
        {
          "internalType": "uint256",
          "name": "",
          "type": "uint256"
        }
      ],
      "stateMutability": "view",
      "type": "function"
    },
    {
      "inputs": [
        {
          "internalType": "uint256",
          "name": "",
          "type": "uint256"
        }
      ],
      "name": "proposals",
      "outputs": [
        {
          "internalType": "enum UniDAO.ProposalType",
          "name": "proposalType",
          "type": "uint8"
        },
        {
          "internalType": "string",
          "name": "title",
          "type": "string"
        },
        {
          "internalType": "string",
          "name": "description",
          "type": "string"
        },
        {
          "internalType": "address",
          "name": "target",
          "type": "address"
        },
        {
          "internalType": "uint256",
          "name": "amount",
          "type": "uint256"
        },
        {
          "internalType": "uint256",
          "name": "newQuorum",
          "type": "uint256"
        },
        {
          "internalType": "uint256",
          "name": "deadline",
          "type": "uint256"
        },
        {
          "internalType": "uint256",
          "name": "yesVotes",
          "type": "uint256"
        },
        {
          "internalType": "uint256",
          "name": "noVotes",
          "type": "uint256"
        },
        {
          "internalType": "bool",
          "name": "executed",
          "type": "bool"
        }
      ],
      "stateMutability": "view",
      "type": "function"
    },
    {
      "inputs": [
        {
          "internalType": "string",
          "name": "title",
          "type": "string"
        },
        {
          "internalType": "string",
          "name": "description",
          "type": "string"
        },
        {
          "internalType": "uint256",
          "name": "duration",
          "type": "uint256"
        }
      ],
      "name": "proposeGeneral",
      "outputs": [
        {
          "internalType": "uint256",
          "name": "",
          "type": "uint256"
        }
      ],
      "stateMutability": "nonpayable",
      "type": "function"
    },
    {
      "inputs": [
        {
          "internalType": "string",
          "name": "title",
          "type": "string"
        },
        {
          "internalType": "string",
          "name": "description",
          "type": "string"
        },
        {
          "internalType": "uint256",
          "name": "newQuorum",
          "type": "uint256"
        },
        {
          "internalType": "uint256",
          "name": "duration",
          "type": "uint256"
        }
      ],
      "name": "proposeSetQuorum",
      "outputs": [
        {
          "internalType": "uint256",
          "name": "",
          "type": "uint256"
        }
      ],
      "stateMutability": "nonpayable",
      "type": "function"
    },
    {
      "inputs": [
        {
          "internalType": "string",
          "name": "title",
          "type": "string"
        },
        {
          "internalType": "string",
          "name": "description",
          "type": "string"
        },
        {
          "internalType": "address",
          "name": "newRegistrar",
          "type": "address"
        },
        {
          "internalType": "uint256",
          "name": "duration",
          "type": "uint256"
        }
      ],
      "name": "proposeSetRegistrar",
      "outputs": [
        {
          "internalType": "uint256",
          "name": "",
          "type": "uint256"
        }
      ],
      "stateMutability": "nonpayable",
      "type": "function"
    },
    {
      "inputs": [
        {
          "internalType": "string",
          "name": "title",
          "type": "string"
        },
        {
          "internalType": "string",
          "name": "description",
          "type": "string"
        },
        {
          "internalType": "address",
          "name": "newTreasury",
          "type": "address"
        },
        {
          "internalType": "uint256",
          "name": "duration",
          "type": "uint256"
        }
      ],
      "name": "proposeSetTreasury",
      "outputs": [
        {
          "internalType": "uint256",
          "name": "",
          "type": "uint256"
        }
      ],
      "stateMutability": "nonpayable",
      "type": "function"
    },
    {
      "inputs": [
        {
          "internalType": "string",
          "name": "title",
          "type": "string"
        },
        {
          "internalType": "string",
          "name": "description",
          "type": "string"
        },
        {
          "internalType": "uint256",
          "name": "newFee",
          "type": "uint256"
        },
        {
          "internalType": "uint256",
          "name": "duration",
          "type": "uint256"
        }
      ],
      "name": "proposeSetVoteFee",
      "outputs": [
        {
          "internalType": "uint256",
          "name": "",
          "type": "uint256"
        }
      ],
      "stateMutability": "nonpayable",
      "type": "function"
    },
    {
      "inputs": [],
      "name": "registrar",
      "outputs": [
        {
          "internalType": "address",
          "name": "",
          "type": "address"
        }
      ],
      "stateMutability": "view",
      "type": "function"
    },
    {
      "inputs": [
        {
          "internalType": "address",
          "name": "student",
          "type": "address"
        }
      ],
      "name": "registrarAddStudent",
      "outputs": [],
      "stateMutability": "nonpayable",
      "type": "function"
    },
    {
      "inputs": [
        {
          "internalType": "address",
          "name": "from",
          "type": "address"
        },
        {
          "internalType": "uint256",
          "name": "amount",
          "type": "uint256"
        }
      ],
      "name": "registrarBurn",
      "outputs": [],
      "stateMutability": "nonpayable",
      "type": "function"
    },
    {
      "inputs": [
        {
          "internalType": "address",
          "name": "to",
          "type": "address"
        },
        {
          "internalType": "uint256",
          "name": "amount",
          "type": "uint256"
        }
      ],
      "name": "registrarMint",
      "outputs": [],
      "stateMutability": "nonpayable",
      "type": "function"
    },
    {
      "inputs": [
        {
          "internalType": "address",
          "name": "student",
          "type": "address"
        }
      ],
      "name": "registrarRemoveStudent",
      "outputs": [],
      "stateMutability": "nonpayable",
      "type": "function"
    },
    {
      "inputs": [],
      "name": "token",
      "outputs": [
        {
          "internalType": "contract IUniToken",
          "name": "",
          "type": "address"
        }
      ],
      "stateMutability": "view",
      "type": "function"
    },
    {
      "inputs": [],
      "name": "treasury",
      "outputs": [
        {
          "internalType": "address",
          "name": "",
          "type": "address"
        }
      ],
      "stateMutability": "view",
      "type": "function"
    },
    {
      "inputs": [
        {
          "internalType": "uint256",
          "name": "proposalId",
          "type": "uint256"
        },
        {
          "internalType": "bool",
          "name": "support",
          "type": "bool"
        }
      ],
      "name": "vote",
      "outputs": [],
      "stateMutability": "nonpayable",
      "type": "function"
    },
    {
      "inputs": [],
      "name": "voteFee",
      "outputs": [
        {
          "internalType": "uint256",
          "name": "",
          "type": "uint256"
        }
      ],
      "stateMutability": "view",
      "type": "function"
    }
  ],
  "bytecode": "0x60a060405234801561001057600080fd5b5060405161329638038061329683398181016040528101906100329190610329565b600073ffffffffffffffffffffffffffffffffffffffff168573ffffffffffffffffffffffffffffffffffffffff16036100a1576040517f08c379a000000000000000000000000000000000000000000000000000000000815260040161009890610401565b60405180910390fd5b600073ffffffffffffffffffffffffffffffffffffffff168373ffffffffffffffffffffffffffffffffffffffff1603610110576040517f08c379a00000000000000000000000000000000000000000000000000000000081526004016101079061046d565b60405180910390fd5b600073ffffffffffffffffffffffffffffffffffffffff168173ffffffffffffffffffffffffffffffffffffffff160361017f576040517f08c379a0000000000000000000000000000000000000000000000000000000008152600401610176906104d9565b60405180910390fd5b600084116101c2576040517f08c379a00000000000000000000000000000000000000000000000000000000081526004016101b990610545565b60405180910390fd5b8473ffffffffffffffffffffffffffffffffffffffff1660808173ffffffffffffffffffffffffffffffffffffffff16815250508360018190555082600360006101000a81548173ffffffffffffffffffffffffffffffffffffffff021916908373ffffffffffffffffffffffffffffffffffffffff1602179055508160028190555080600460006101000a81548173ffffffffffffffffffffffffffffffffffffffff021916908373ffffffffffffffffffffffffffffffffffffffff1602179055505050505050610565565b600080fd5b600073ffffffffffffffffffffffffffffffffffffffff82169050919050565b60006102c082610295565b9050919050565b6102d0816102b5565b81146102db57600080fd5b50565b6000815190506102ed816102c7565b92915050565b6000819050919050565b610306816102f3565b811461031157600080fd5b50565b600081519050610323816102fd565b92915050565b600080600080600060a0868803121561034557610344610290565b5b6000610353888289016102de565b955050602061036488828901610314565b9450506040610375888289016102de565b935050606061038688828901610314565b9250506080610397888289016102de565b9150509295509295909350565b600082825260208201905092915050565b7f496e76616c696420746f6b656e00000000000000000000000000000000000000600082015250565b60006103eb600d836103a4565b91506103f6826103b5565b602082019050919050565b6000602082019050818103600083015261041a816103de565b9050919050565b7f496e76616c696420747265617375727900000000000000000000000000000000600082015250565b60006104576010836103a4565b915061046282610421565b602082019050919050565b600060208201905081810360008301526104868161044a565b9050919050565b7f496e76616c696420726567697374726172000000000000000000000000000000600082015250565b60006104c36011836103a4565b91506104ce8261048d565b602082019050919050565b600060208201905081810360008301526104f2816104b6565b9050919050565b7f496e76616c69642071756f72756d000000000000000000000000000000000000600082015250565b600061052f600e836103a4565b915061053a826104f9565b602082019050919050565b6000602082019050818103600083015261055e81610522565b9050919050565b608051612cd76105bf600039600081816108750152818161099601528181610bee01528181610cc901528181610e170152818161102e0152818161115b015281816111ec0152818161167601526117510152612cd76000f3fe608060405234801561001057600080fd5b50600436106101215760003560e01c8063b5a127e5116100ad578063d4feed4411610071578063d4feed4414610349578063da2b4c1e14610365578063da35c66414610383578063dae581de146103a1578063fc0c546a146103bd57610121565b8063b5a127e51461027f578063b5e1246c1461029d578063b743abc5146102cd578063c6b31654146102fd578063c9d27afe1461032d57610121565b806351dae88d116100f457806351dae88d146101c957806361d027b3146101f9578063759ceca51461021757806377ec25e114610233578063a829c4711461024f57610121565b8063013cf08b1461012657806305261aea1461015f5780632b20e3971461017b5780634385963214610199575b600080fd5b610140600480360381019061013b9190611aa6565b6103db565b6040516101569a99989796959493929190611c45565b60405180910390f35b61017960048036038101906101749190611aa6565b610579565b005b61018361074b565b6040516101909190611cef565b60405180910390f35b6101b360048036038101906101ae9190611d36565b610771565b6040516101c09190611d76565b60405180910390f35b6101e360048036038101906101de9190611ec6565b6107a0565b6040516101f09190611f65565b60405180910390f35b6102016107bd565b60405161020e9190611cef565b60405180910390f35b610231600480360381019061022c9190611f80565b6107e3565b005b61024d60048036038101906102489190611fad565b610904565b005b61026960048036038101906102649190611fed565b610a25565b6040516102769190611f65565b60405180910390f35b610287610a43565b6040516102949190611f65565b60405180910390f35b6102b760048036038101906102b2919061208c565b610a49565b6040516102c49190611f65565b60405180910390f35b6102e760048036038101906102e29190611fed565b610a66565b6040516102f49190611f65565b60405180910390f35b61031760048036038101906103129190611ec6565b610a83565b6040516103249190611f65565b60405180910390f35b61034760048036038101906103429190612143565b610aa0565b005b610363600480360381019061035e9190611f80565b610f9c565b005b61036d6110bd565b60405161037a9190611f65565b60405180910390f35b61038b6110c3565b6040516103989190611f65565b60405180910390f35b6103bb60048036038101906103b69190611fad565b6110c9565b005b6103c56111ea565b6040516103d291906121e2565b60405180910390f35b60056020528060005260406000206000915090508060000160009054906101000a900460ff16908060010180546104119061222c565b80601f016020809104026020016040519081016040528092919081815260200182805461043d9061222c565b801561048a5780601f1061045f5761010080835404028352916020019161048a565b820191906000526020600020905b81548152906001019060200180831161046d57829003601f168201915b50505050509080600201805461049f9061222c565b80601f01602080910402602001604051908101604052809291908181526020018280546104cb9061222c565b80156105185780601f106104ed57610100808354040283529160200191610518565b820191906000526020600020905b8154815290600101906020018083116104fb57829003601f168201915b5050505050908060030160009054906101000a900473ffffffffffffffffffffffffffffffffffffffff16908060040154908060050154908060060154908060070154908060080154908060090160009054906101000a900460ff1690508a565b60008111801561058b57506000548111155b6105ca576040517f08c379a00000000000000000000000000000000000000000000000000000000081526004016105c1906122a9565b60405180910390fd5b60006005600083815260200190815260200160002090508060060154421015610628576040517f08c379a000000000000000000000000000000000000000000000000000000000815260040161061f90612315565b60405180910390fd5b8060090160009054906101000a900460ff161561067a576040517f08c379a000000000000000000000000000000000000000000000000000000000815260040161067190612381565b60405180910390fd5b6001548160080154826007015461069191906123d0565b10156106d2576040517f08c379a00000000000000000000000000000000000000000000000000000000081526004016106c990612450565b60405180910390fd5b60018160090160006101000a81548160ff021916908315150217905550600081600801548260070154119050801561070e5761070d8261120e565b5b827fb5ac567fcf1b069e0235e4f16734625c6cf54c1b40517fd9eb85517f6e1265a78260405161073e9190611d76565b60405180910390a2505050565b600460009054906101000a900473ffffffffffffffffffffffffffffffffffffffff1681565b60066020528160005260406000206020528060005260406000206000915091509054906101000a900460ff1681565b60006107b3600486868660008088611672565b9050949350505050565b600360009054906101000a900473ffffffffffffffffffffffffffffffffffffffff1681565b600460009054906101000a900473ffffffffffffffffffffffffffffffffffffffff1673ffffffffffffffffffffffffffffffffffffffff163373ffffffffffffffffffffffffffffffffffffffff1614610873576040517f08c379a000000000000000000000000000000000000000000000000000000000815260040161086a906124bc565b60405180910390fd5b7f000000000000000000000000000000000000000000000000000000000000000073ffffffffffffffffffffffffffffffffffffffff16639281aa0b8260016040518363ffffffff1660e01b81526004016108cf9291906124dc565b600060405180830381600087803b1580156108e957600080fd5b505af11580156108fd573d6000803e3d6000fd5b5050505050565b600460009054906101000a900473ffffffffffffffffffffffffffffffffffffffff1673ffffffffffffffffffffffffffffffffffffffff163373ffffffffffffffffffffffffffffffffffffffff1614610994576040517f08c379a000000000000000000000000000000000000000000000000000000000815260040161098b906124bc565b60405180910390fd5b7f000000000000000000000000000000000000000000000000000000000000000073ffffffffffffffffffffffffffffffffffffffff16639dc29fac83836040518363ffffffff1660e01b81526004016109ef929190612505565b600060405180830381600087803b158015610a0957600080fd5b505af1158015610a1d573d6000803e3d6000fd5b505050505050565b6000610a3960038686600087600088611672565b9050949350505050565b60015481565b6000610a5d60018585600080600088611672565b90509392505050565b6000610a79600086866000808888611672565b9050949350505050565b6000610a96600286868660008088611672565b9050949350505050565b600082118015610ab257506000548211155b610af1576040517f08c379a0000000000000000000000000000000000000000000000000000000008152600401610ae8906122a9565b60405180910390fd5b600060056000848152602001908152602001600020905080600601544210610b4e576040517f08c379a0000000000000000000000000000000000000000000000000000000008152600401610b459061257a565b60405180910390fd5b6006600084815260200190815260200160002060003373ffffffffffffffffffffffffffffffffffffffff1673ffffffffffffffffffffffffffffffffffffffff16815260200190815260200160002060009054906101000a900460ff1615610bec576040517f08c379a0000000000000000000000000000000000000000000000000000000008152600401610be3906125e6565b60405180910390fd5b7f000000000000000000000000000000000000000000000000000000000000000073ffffffffffffffffffffffffffffffffffffffff16633af32abf336040518263ffffffff1660e01b8152600401610c459190611cef565b602060405180830381865afa158015610c62573d6000803e3d6000fd5b505050506040513d601f19601f82011682018060405250810190610c86919061261b565b610cc5576040517f08c379a0000000000000000000000000000000000000000000000000000000008152600401610cbc90612694565b60405180910390fd5b60007f000000000000000000000000000000000000000000000000000000000000000073ffffffffffffffffffffffffffffffffffffffff166370a08231336040518263ffffffff1660e01b8152600401610d209190611cef565b602060405180830381865afa158015610d3d573d6000803e3d6000fd5b505050506040513d601f19601f82011682018060405250810190610d6191906126c9565b11610da1576040517f08c379a0000000000000000000000000000000000000000000000000000000008152600401610d9890612742565b60405180910390fd5b60016006600085815260200190815260200160002060003373ffffffffffffffffffffffffffffffffffffffff1673ffffffffffffffffffffffffffffffffffffffff16815260200190815260200160002060006101000a81548160ff02191690831515021790555060006002541115610f19577f000000000000000000000000000000000000000000000000000000000000000073ffffffffffffffffffffffffffffffffffffffff166323b872dd33600360009054906101000a900473ffffffffffffffffffffffffffffffffffffffff166002546040518463ffffffff1660e01b8152600401610e9693929190612762565b6020604051808303816000875af1158015610eb5573d6000803e3d6000fd5b505050506040513d601f19601f82011682018060405250810190610ed9919061261b565b610f18576040517f08c379a0000000000000000000000000000000000000000000000000000000008152600401610f0f906127e5565b60405180910390fd5b5b8115610f40576001816007016000828254610f3491906123d0565b92505081905550610f5d565b6001816008016000828254610f5591906123d0565b925050819055505b827fe71fcdac32df1877c1700e7bda2a03157e20993363a28fc35ac495cefc76e4d43384604051610f8f9291906124dc565b60405180910390a2505050565b600460009054906101000a900473ffffffffffffffffffffffffffffffffffffffff1673ffffffffffffffffffffffffffffffffffffffff163373ffffffffffffffffffffffffffffffffffffffff161461102c576040517f08c379a0000000000000000000000000000000000000000000000000000000008152600401611023906124bc565b60405180910390fd5b7f000000000000000000000000000000000000000000000000000000000000000073ffffffffffffffffffffffffffffffffffffffff16639281aa0b8260006040518363ffffffff1660e01b81526004016110889291906124dc565b600060405180830381600087803b1580156110a257600080fd5b505af11580156110b6573d6000803e3d6000fd5b5050505050565b60025481565b60005481565b600460009054906101000a900473ffffffffffffffffffffffffffffffffffffffff1673ffffffffffffffffffffffffffffffffffffffff163373ffffffffffffffffffffffffffffffffffffffff1614611159576040517f08c379a0000000000000000000000000000000000000000000000000000000008152600401611150906124bc565b60405180910390fd5b7f000000000000000000000000000000000000000000000000000000000000000073ffffffffffffffffffffffffffffffffffffffff166340c10f1983836040518363ffffffff1660e01b81526004016111b4929190612505565b600060405180830381600087803b1580156111ce57600080fd5b505af11580156111e2573d6000803e3d6000fd5b505050505050565b7f000000000000000000000000000000000000000000000000000000000000000081565b6000600481111561122257611221611ad3565b5b8160000160009054906101000a900460ff16600481111561124657611245611ad3565b5b036112a2576000816005015411611292576040517f08c379a000000000000000000000000000000000000000000000000000000000815260040161128990612851565b60405180910390fd5b806005015460018190555061166f565b600260048111156112b6576112b5611ad3565b5b8160000160009054906101000a900460ff1660048111156112da576112d9611ad3565b5b0361144357600073ffffffffffffffffffffffffffffffffffffffff168160030160009054906101000a900473ffffffffffffffffffffffffffffffffffffffff1673ffffffffffffffffffffffffffffffffffffffff1603611372576040517f08c379a0000000000000000000000000000000000000000000000000000000008152600401611369906128bd565b60405180910390fd5b8060030160009054906101000a900473ffffffffffffffffffffffffffffffffffffffff16600360006101000a81548173ffffffffffffffffffffffffffffffffffffffff021916908373ffffffffffffffffffffffffffffffffffffffff1602179055508060030160009054906101000a900473ffffffffffffffffffffffffffffffffffffffff1673ffffffffffffffffffffffffffffffffffffffff167f7dae230f18360d76a040c81f050aa14eb9d6dc7901b20fc5d855e2a20fe814d160405160405180910390a261166e565b6003600481111561145757611456611ad3565b5b8160000160009054906101000a900460ff16600481111561147b5761147a611ad3565b5b036114cb5780600401546002819055507fa4dcc6209a678686674e4f2a0af907cb65a14917286421a5aa1673b7a525abc881600401546040516114be9190611f65565b60405180910390a161166d565b6004808111156114de576114dd611ad3565b5b8160000160009054906101000a900460ff16600481111561150257611501611ad3565b5b0361166b57600073ffffffffffffffffffffffffffffffffffffffff168160030160009054906101000a900473ffffffffffffffffffffffffffffffffffffffff1673ffffffffffffffffffffffffffffffffffffffff160361159a576040517f08c379a000000000000000000000000000000000000000000000000000000000815260040161159190612929565b60405180910390fd5b8060030160009054906101000a900473ffffffffffffffffffffffffffffffffffffffff16600460006101000a81548173ffffffffffffffffffffffffffffffffffffffff021916908373ffffffffffffffffffffffffffffffffffffffff1602179055508060030160009054906101000a900473ffffffffffffffffffffffffffffffffffffffff1673ffffffffffffffffffffffffffffffffffffffff167fe696533f02cb3abcaaf5e85cd893de5abf147a82fd1496ddd3e5219da0a6643760405160405180910390a261166c565b5b5b5b5b50565b60007f000000000000000000000000000000000000000000000000000000000000000073ffffffffffffffffffffffffffffffffffffffff16633af32abf336040518263ffffffff1660e01b81526004016116cd9190611cef565b602060405180830381865afa1580156116ea573d6000803e3d6000fd5b505050506040513d601f19601f8201168201806040525081019061170e919061261b565b61174d576040517f08c379a000000000000000000000000000000000000000000000000000000000815260040161174490612694565b60405180910390fd5b60007f000000000000000000000000000000000000000000000000000000000000000073ffffffffffffffffffffffffffffffffffffffff166370a08231336040518263ffffffff1660e01b81526004016117a89190611cef565b602060405180830381865afa1580156117c5573d6000803e3d6000fd5b505050506040513d601f19601f820116820180604052508101906117e991906126c9565b11611829576040517f08c379a000000000000000000000000000000000000000000000000000000000815260040161182090612742565b60405180910390fd5b603c82101561186d576040517f08c379a000000000000000000000000000000000000000000000000000000000815260040161186490612995565b60405180910390fd5b60008081548092919061187f906129b5565b91905055506040518061014001604052808960048111156118a3576118a2611ad3565b5b81526020018881526020018781526020018673ffffffffffffffffffffffffffffffffffffffff16815260200185815260200184815260200183426118e891906123d0565b8152602001600081526020016000815260200160001515815250600560008054815260200190815260200160002060008201518160000160006101000a81548160ff0219169083600481111561194157611940611ad3565b5b0217905550602082015181600101908161195b9190612b9f565b5060408201518160020190816119719190612b9f565b5060608201518160030160006101000a81548173ffffffffffffffffffffffffffffffffffffffff021916908373ffffffffffffffffffffffffffffffffffffffff1602179055506080820151816004015560a0820151816005015560c0820151816006015560e0820151816007015561010082015181600801556101208201518160090160006101000a81548160ff0219169083151502179055509050506000547f2d6a2a1a504050a1fa6107e44f49971fd89dbe544b433d65f1c572ce5fa3b7d18989604051611a44929190612c71565b60405180910390a26000549050979650505050505050565b6000604051905090565b600080fd5b600080fd5b6000819050919050565b611a8381611a70565b8114611a8e57600080fd5b50565b600081359050611aa081611a7a565b92915050565b600060208284031215611abc57611abb611a66565b5b6000611aca84828501611a91565b91505092915050565b7f4e487b7100000000000000000000000000000000000000000000000000000000600052602160045260246000fd5b60058110611b1357611b12611ad3565b5b50565b6000819050611b2482611b02565b919050565b6000611b3482611b16565b9050919050565b611b4481611b29565b82525050565b600081519050919050565b600082825260208201905092915050565b60005b83811015611b84578082015181840152602081019050611b69565b60008484015250505050565b6000601f19601f8301169050919050565b6000611bac82611b4a565b611bb68185611b55565b9350611bc6818560208601611b66565b611bcf81611b90565b840191505092915050565b600073ffffffffffffffffffffffffffffffffffffffff82169050919050565b6000611c0582611bda565b9050919050565b611c1581611bfa565b82525050565b611c2481611a70565b82525050565b60008115159050919050565b611c3f81611c2a565b82525050565b600061014082019050611c5b600083018d611b3b565b8181036020830152611c6d818c611ba1565b90508181036040830152611c81818b611ba1565b9050611c90606083018a611c0c565b611c9d6080830189611c1b565b611caa60a0830188611c1b565b611cb760c0830187611c1b565b611cc460e0830186611c1b565b611cd2610100830185611c1b565b611ce0610120830184611c36565b9b9a5050505050505050505050565b6000602082019050611d046000830184611c0c565b92915050565b611d1381611bfa565b8114611d1e57600080fd5b50565b600081359050611d3081611d0a565b92915050565b60008060408385031215611d4d57611d4c611a66565b5b6000611d5b85828601611a91565b9250506020611d6c85828601611d21565b9150509250929050565b6000602082019050611d8b6000830184611c36565b92915050565b600080fd5b600080fd5b7f4e487b7100000000000000000000000000000000000000000000000000000000600052604160045260246000fd5b611dd382611b90565b810181811067ffffffffffffffff82111715611df257611df1611d9b565b5b80604052505050565b6000611e05611a5c565b9050611e118282611dca565b919050565b600067ffffffffffffffff821115611e3157611e30611d9b565b5b611e3a82611b90565b9050602081019050919050565b82818337600083830152505050565b6000611e69611e6484611e16565b611dfb565b905082815260208101848484011115611e8557611e84611d96565b5b611e90848285611e47565b509392505050565b600082601f830112611ead57611eac611d91565b5b8135611ebd848260208601611e56565b91505092915050565b60008060008060808587031215611ee057611edf611a66565b5b600085013567ffffffffffffffff811115611efe57611efd611a6b565b5b611f0a87828801611e98565b945050602085013567ffffffffffffffff811115611f2b57611f2a611a6b565b5b611f3787828801611e98565b9350506040611f4887828801611d21565b9250506060611f5987828801611a91565b91505092959194509250565b6000602082019050611f7a6000830184611c1b565b92915050565b600060208284031215611f9657611f95611a66565b5b6000611fa484828501611d21565b91505092915050565b60008060408385031215611fc457611fc3611a66565b5b6000611fd285828601611d21565b9250506020611fe385828601611a91565b9150509250929050565b6000806000806080858703121561200757612006611a66565b5b600085013567ffffffffffffffff81111561202557612024611a6b565b5b61203187828801611e98565b945050602085013567ffffffffffffffff81111561205257612051611a6b565b5b61205e87828801611e98565b935050604061206f87828801611a91565b925050606061208087828801611a91565b91505092959194509250565b6000806000606084860312156120a5576120a4611a66565b5b600084013567ffffffffffffffff8111156120c3576120c2611a6b565b5b6120cf86828701611e98565b935050602084013567ffffffffffffffff8111156120f0576120ef611a6b565b5b6120fc86828701611e98565b925050604061210d86828701611a91565b9150509250925092565b61212081611c2a565b811461212b57600080fd5b50565b60008135905061213d81612117565b92915050565b6000806040838503121561215a57612159611a66565b5b600061216885828601611a91565b92505060206121798582860161212e565b9150509250929050565b6000819050919050565b60006121a86121a361219e84611bda565b612183565b611bda565b9050919050565b60006121ba8261218d565b9050919050565b60006121cc826121af565b9050919050565b6121dc816121c1565b82525050565b60006020820190506121f760008301846121d3565b92915050565b7f4e487b7100000000000000000000000000000000000000000000000000000000600052602260045260246000fd5b6000600282049050600182168061224457607f821691505b602082108103612257576122566121fd565b5b50919050565b7f496e76616c69642070726f706f73616c00000000000000000000000000000000600082015250565b6000612293601083611b55565b915061229e8261225d565b602082019050919050565b600060208201905081810360008301526122c281612286565b9050919050565b7f566f74696e67206e6f7420656e64656400000000000000000000000000000000600082015250565b60006122ff601083611b55565b915061230a826122c9565b602082019050919050565b6000602082019050818103600083015261232e816122f2565b9050919050565b7f416c72656164792066696e616c697a6564000000000000000000000000000000600082015250565b600061236b601183611b55565b915061237682612335565b602082019050919050565b6000602082019050818103600083015261239a8161235e565b9050919050565b7f4e487b7100000000000000000000000000000000000000000000000000000000600052601160045260246000fd5b60006123db82611a70565b91506123e683611a70565b92508282019050808211156123fe576123fd6123a1565b5b92915050565b7f51756f72756d206e6f7420726561636865640000000000000000000000000000600082015250565b600061243a601283611b55565b915061244582612404565b602082019050919050565b600060208201905081810360008301526124698161242d565b9050919050565b7f4e6f742072656769737472617200000000000000000000000000000000000000600082015250565b60006124a6600d83611b55565b91506124b182612470565b602082019050919050565b600060208201905081810360008301526124d581612499565b9050919050565b60006040820190506124f16000830185611c0c565b6124fe6020830184611c36565b9392505050565b600060408201905061251a6000830185611c0c565b6125276020830184611c1b565b9392505050565b7f566f74696e6720656e6465640000000000000000000000000000000000000000600082015250565b6000612564600c83611b55565b915061256f8261252e565b602082019050919050565b6000602082019050818103600083015261259381612557565b9050919050565b7f416c726561647920766f74656400000000000000000000000000000000000000600082015250565b60006125d0600d83611b55565b91506125db8261259a565b602082019050919050565b600060208201905081810360008301526125ff816125c3565b9050919050565b60008151905061261581612117565b92915050565b60006020828403121561263157612630611a66565b5b600061263f84828501612606565b91505092915050565b7f4e6f742077686974656c69737465640000000000000000000000000000000000600082015250565b600061267e600f83611b55565b915061268982612648565b602082019050919050565b600060208201905081810360008301526126ad81612671565b9050919050565b6000815190506126c381611a7a565b92915050565b6000602082840312156126df576126de611a66565b5b60006126ed848285016126b4565b91505092915050565b7f4d75737420686f6c642055445400000000000000000000000000000000000000600082015250565b600061272c600d83611b55565b9150612737826126f6565b602082019050919050565b6000602082019050818103600083015261275b8161271f565b9050919050565b60006060820190506127776000830186611c0c565b6127846020830185611c0c565b6127916040830184611c1b565b949350505050565b7f466565207472616e73666572206661696c656400000000000000000000000000600082015250565b60006127cf601383611b55565b91506127da82612799565b602082019050919050565b600060208201905081810360008301526127fe816127c2565b9050919050565b7f496e76616c69642071756f72756d000000000000000000000000000000000000600082015250565b600061283b600e83611b55565b915061284682612805565b602082019050919050565b6000602082019050818103600083015261286a8161282e565b9050919050565b7f496e76616c696420747265617375727900000000000000000000000000000000600082015250565b60006128a7601083611b55565b91506128b282612871565b602082019050919050565b600060208201905081810360008301526128d68161289a565b9050919050565b7f496e76616c696420726567697374726172000000000000000000000000000000600082015250565b6000612913601183611b55565b915061291e826128dd565b602082019050919050565b6000602082019050818103600083015261294281612906565b9050919050565b7f4475726174696f6e20746f6f2073686f72740000000000000000000000000000600082015250565b600061297f601283611b55565b915061298a82612949565b602082019050919050565b600060208201905081810360008301526129ae81612972565b9050919050565b60006129c082611a70565b91507fffffffffffffffffffffffffffffffffffffffffffffffffffffffffffffffff82036129f2576129f16123a1565b5b600182019050919050565b60008190508160005260206000209050919050565b60006020601f8301049050919050565b600082821b905092915050565b600060088302612a5f7fffffffffffffffffffffffffffffffffffffffffffffffffffffffffffffffff82612a22565b612a698683612a22565b95508019841693508086168417925050509392505050565b6000612a9c612a97612a9284611a70565b612183565b611a70565b9050919050565b6000819050919050565b612ab683612a81565b612aca612ac282612aa3565b848454612a2f565b825550505050565b600090565b612adf612ad2565b612aea818484612aad565b505050565b5b81811015612b0e57612b03600082612ad7565b600181019050612af0565b5050565b601f821115612b5357612b24816129fd565b612b2d84612a12565b81016020851015612b3c578190505b612b50612b4885612a12565b830182612aef565b50505b505050565b600082821c905092915050565b6000612b7660001984600802612b58565b1980831691505092915050565b6000612b8f8383612b65565b9150826002028217905092915050565b612ba882611b4a565b67ffffffffffffffff811115612bc157612bc0611d9b565b5b612bcb825461222c565b612bd6828285612b12565b600060209050601f831160018114612c095760008415612bf7578287015190505b612c018582612b83565b865550612c69565b601f198416612c17866129fd565b60005b82811015612c3f57848901518255600182019150602085019450602081019050612c1a565b86831015612c5c5784890151612c58601f891682612b65565b8355505b6001600288020188555050505b505050505050565b6000604082019050612c866000830185611b3b565b8181036020830152612c988184611ba1565b9050939250505056fea264697066735822122004fe3f40d603e240e885df4453cb8940896128f581c14ccbb8ff34004797e01764736f6c634300081c0033",
  "linkReferences": {},
  "deployedLinkReferences": {}
}