{
  "_format": "hh-sol-artifact-1",
  "contractName": "UniToken",
  "sourceName": "contracts/UniToken.sol",
  "abi": [
    {
      "inputs": [],
      "stateMutability": "nonpayable",
      "type": "constructor"
    },
    {
      "inputs": [
        {
          "internalType": "address",
          "name": "spender",
          "type": "address"
        },
        {
          "internalType": "uint256",
          "name": "allowance",
          "type": "uint256"
        },
        {
          "internalType": "uint256",
          "name": "needed",
          "type": "uint256"
        }
      ],
      "name": "ERC20InsufficientAllowance",
      "type": "error"
    },
    {
      "inputs": [
        {
          "internalType": "address",
          "name": "sender",
          "type": "address"
        },
        {
          "internalType": "uint256",
          "name": "balance",
          "type": "uint256"
        },
        {
          "internalType": "uint256",
          "name": "needed",
          "type": "uint256"
        }
      ],
      "name": "ERC20InsufficientBalance",
      "type": "error"
    },
    {
      "inputs": [
        {
          "internalType": "address",
          "name": "approver",
          "type": "address"
        }
      ],
      "name": "ERC20InvalidApprover",
      "type": "error"
    },
    {
      "inputs": [
        {
          "internalType": "address",
          "name": "receiver",
          "type": "address"
        }
      ],
      "name": "ERC20InvalidReceiver",
      "type": "error"
    },
    {
      "inputs": [
        {
          "internalType": "address",
          "name": "sender",
          "type": "address"
        }
      ],
      "name": "ERC20InvalidSender",
      "type": "error"
    },
    {
      "inputs": [
        {
          "internalType": "address",
          "name": "spender",
          "type": "address"
        }
      ],
      "name": "ERC20InvalidSpender",
      "type": "error"
    },
    {
      "inputs": [
        {
          "internalType": "address",
          "name": "owner",
          "type": "address"
        }
      ],
      "name": "OwnableInvalidOwner",
      "type": "error"
    },
    {
      "inputs": [
        {
          "internalType": "address",
          "name": "account",
          "type": "address"
        }
      ],
      "name": "OwnableUnauthorizedAccount",
      "type": "error"
    },
    {
      "anonymous": false,
      "inputs": [
        {
          "indexed": true,
          "internalType": "address",
          "name": "owner",
          "type": "address"
        },
        {
          "indexed": true,
          "internalType": "address",
          "name": "spender",
          "type": "address"
        },
        {
          "indexed": false,
          "internalType": "uint256",
          "name": "value",
          "type": "uint256"
        }
      ],
      "name": "Approval",
      "type": "event"
    },
    {
      "anonymous": false,
      "inputs": [
        {
          "indexed": true,
          "internalType": "address",
          "name": "previousOwner",
          "type": "address"
        },
        {
          "indexed": true,
          "internalType": "address",
          "name": "newOwner",
          "type": "address"
        }
      ],
      "name": "OwnershipTransferred",
      "type": "event"
    },
    {
      "anonymous": false,
      "inputs": [
        {
          "indexed": true,
          "internalType": "address",
          "name": "from",
          "type": "address"
        },
        {
          "indexed": true,
          "internalType": "address",
          "name": "to",
          "type": "address"
        },
        {
          "indexed": false,
          "internalType": "uint256",
          "name": "value",
          "type": "uint256"
        }
      ],
      "name": "Transfer",
      "type": "event"
    },
    {
      "anonymous": false,
      "inputs": [
        {
          "indexed": true,
          "internalType": "address",
          "name": "account",
          "type": "address"
        },
        {
          "indexed": false,
          "internalType": "bool",
          "name": "allowed",
          "type": "bool"
        }
      ],
      "name": "WhitelistUpdated",
      "type": "event"
    },
    {
      "inputs": [
        {
          "internalType": "address",
          "name": "owner",
          "type": "address"
        },
        {
          "internalType": "address",
          "name": "spender",
          "type": "address"
        }
      ],
      "name": "allowance",
      "outputs": [
        {
          "internalType": "uint256",
          "name": "",
          "type": "uint256"
        }
      ],
      "stateMutability": "view",
      "type": "function"
    },
    {
      "inputs": [
        {
          "internalType": "address",
          "name": "spender",
          "type": "address"
        },
        {
          "internalType": "uint256",
          "name": "value",
          "type": "uint256"
        }
      ],
      "name": "approve",
      "outputs": [
        {
          "internalType": "bool",
          "name": "",
          "type": "bool"
        }
      ],
      "stateMutability": "nonpayable",
      "type": "function"
    },
    {
      "inputs": [
        {
          "internalType": "address",
          "name": "account",
          "type": "address"
        }
      ],
      "name": "balanceOf",
      "outputs": [
        {
          "internalType": "uint256",
          "name": "",
          "type": "uint256"
        }
      ],
      "stateMutability": "view",
      "type": "function"
    },
    {
      "inputs": [
        {
          "internalType": "address",
          "name": "from",
          "type": "address"
        },
        {
          "internalType": "uint256",
          "name": "amount",
          "type": "uint256"
        }
      ],
      "name": "burn",
      "outputs": [],
      "stateMutability": "nonpayable",
      "type": "function"
    },
    {
      "inputs": [],
      "name": "decimals",
      "outputs": [
        {
          "internalType": "uint8",
          "name": "",
          "type": "uint8"
        }
      ],
      "stateMutability": "view",
      "type": "function"
    },
    {
      "inputs": [
        {
          "internalType": "address",
          "name": "account",
          "type": "address"
        }
      ],
      "name": "isWhitelisted",
      "outputs": [
        {
          "internalType": "bool",
          "name": "",
          "type": "bool"
        }
      ],
      "stateMutability": "view",
      "type": "function"
    },
    {
      "inputs": [
        {
          "internalType": "address",
          "name": "to",
          "type": "address"
        },
        {
          "internalType": "uint256",
          "name": "amount",
          "type": "uint256"
        }
      ],
      "name": "mint",
      "outputs": [],
      "stateMutability": "nonpayable",
      "type": "function"
    },
    {
      "inputs": [],
      "name": "name",
      "outputs": [
        {
          "internalType": "string",
          "name": "",
          "type": "string"
        }
      ],
      "stateMutability": "view",
      "type": "function"
    },
    {
      "inputs": [],
      "name": "owner",
      "outputs": [
        {
          "internalType": "address",
          "name": "",
          "type": "address"
        }
      ],
      "stateMutability": "view",
      "type": "function"
    },
    {
      "inputs": [],
      "name": "renounceOwnership",
      "outputs": [],
      "stateMutability": "nonpayable",
      "type": "function"
    },
    {
      "inputs": [
        {
          "internalType": "address",
          "name": "account",
          "type": "address"
        },
        {
          "internalType": "bool",
          "name": "allowed",
          "type": "bool"
        }
      ],
      "name": "setWhitelisted",
      "outputs": [],
      "stateMutability": "nonpayable",
      "type": "function"
    },
    {
      "inputs": [],
      "name": "symbol",
      "outputs": [
        {
          "internalType": "string",
          "name": "",
          "type": "string"
        }
      ],
      "stateMutability": "view",
      "type": "function"
    },
    {
      "inputs": [],
      "name": "totalSupply",
      "outputs": [
        {
          "internalType": "uint256",
          "name": "",
          "type": "uint256"
        }
      ],
      "stateMutability": "view",
      "type": "function"
    },
    {
      "inputs": [
        {
          "internalType": "address",
          "name": "to",
          "type": "address"
        },
        {
          "internalType": "uint256",
          "name": "value",
          "type": "uint256"
        }
      ],
      "name": "transfer",
      "outputs": [
        {
          "internalType": "bool",
          "name": "",
          "type": "bool"
        }
      ],
      "stateMutability": "nonpayable",
      "type": "function"
    },
    {
      "inputs": [
        {
          "internalType": "address",
          "name": "from",
          "type": "address"
        },
        {
          "internalType": "address",
          "name": "to",
          "type": "address"
        },
        {
          "internalType": "uint256",
          "name": "value",
          "type": "uint256"
        }
      ],
      "name": "transferFrom",
      "outputs": [
        {
          "internalType": "bool",
          "name": "",
          "type": "bool"
        }
      ],
      "stateMutability": "nonpayable",
      "type": "function"
    },
    {
      "inputs": [
        {
          "internalType": "address",
          "name": "newOwner",
          "type": "address"
        }
      ],
      "name": "transferOwnership",
      "outputs": [],
      "stateMutability": "nonpayable",
      "type": "function"
    }
  ],
  "bytecode": "0x608060405234801561001057600080fd5b50336040518060400160405280600d81526020017f556e692044414f20546f6b656e000000000000000000000000000000000000008152506040518060400160405280600381526020017f5544540000000000000000000000000000000000000000000000000000000000815250816003908161008d91906108e9565b50806004908161009d91906108e9565b505050600073ffffffffffffffffffffffffffffffffffffffff168173ffffffffffffffffffffffffffffffffffffffff16036101125760006040517f1e4fbdf700000000000000000000000000000000000000000000000000000000815260040161010991906109fc565b60405180910390fd5b610121816101b660201b60201c565b506101593361013461027c60201b60201c565b600a6101409190610b86565b620f424061014e9190610bd1565b61028560201b60201c565b6001600660003373ffffffffffffffffffffffffffffffffffffffff1673ffffffffffffffffffffffffffffffffffffffff16815260200190815260200160002060006101000a81548160ff021916908315150217905550610d25565b6000600560009054906101000a900473ffffffffffffffffffffffffffffffffffffffff16905081600560006101000a81548173ffffffffffffffffffffffffffffffffffffffff021916908373ffffffffffffffffffffffffffffffffffffffff1602179055508173ffffffffffffffffffffffffffffffffffffffff168173ffffffffffffffffffffffffffffffffffffffff167f8be0079c531659141344cd1fd0a4f28419497f9722a3daafe3b4186f6b6457e060405160405180910390a35050565b60006012905090565b600073ffffffffffffffffffffffffffffffffffffffff168273ffffffffffffffffffffffffffffffffffffffff16036102f75760006040517fec442f050000000000000000000000000000000000000000000000000000000081526004016102ee91906109fc565b60405180910390fd5b6103096000838361030d60201b60201c565b5050565b600073ffffffffffffffffffffffffffffffffffffffff168373ffffffffffffffffffffffffffffffffffffffff16141580156103775750600073ffffffffffffffffffffffffffffffffffffffff168273ffffffffffffffffffffffffffffffffffffffff1614155b1561045e57600660008473ffffffffffffffffffffffffffffffffffffffff1673ffffffffffffffffffffffffffffffffffffffff16815260200190815260200160002060009054906101000a900460ff16801561041e5750600660008373ffffffffffffffffffffffffffffffffffffffff1673ffffffffffffffffffffffffffffffffffffffff16815260200190815260200160002060009054906101000a900460ff165b61045d576040517f08c379a000000000000000000000000000000000000000000000000000000000815260040161045490610c70565b60405180910390fd5b5b61046f83838361047460201b60201c565b505050565b600073ffffffffffffffffffffffffffffffffffffffff168373ffffffffffffffffffffffffffffffffffffffff16036104c65780600260008282546104ba9190610c90565b92505081905550610599565b60008060008573ffffffffffffffffffffffffffffffffffffffff1673ffffffffffffffffffffffffffffffffffffffff16815260200190815260200160002054905081811015610552578381836040517fe450d38c00000000000000000000000000000000000000000000000000000000815260040161054993929190610cd3565b60405180910390fd5b8181036000808673ffffffffffffffffffffffffffffffffffffffff1673ffffffffffffffffffffffffffffffffffffffff16815260200190815260200160002081905550505b600073ffffffffffffffffffffffffffffffffffffffff168273ffffffffffffffffffffffffffffffffffffffff16036105e2578060026000828254039250508190555061062f565b806000808473ffffffffffffffffffffffffffffffffffffffff1673ffffffffffffffffffffffffffffffffffffffff168152602001908152602001600020600082825401925050819055505b8173ffffffffffffffffffffffffffffffffffffffff168373ffffffffffffffffffffffffffffffffffffffff167fddf252ad1be2c89b69c2b068fc378daa952ba7f163c4a11628f55a4df523b3ef8360405161068c9190610d0a565b60405180910390a3505050565b600081519050919050565b7f4e487b7100000000000000000000000000000000000000000000000000000000600052604160045260246000fd5b7f4e487b7100000000000000000000000000000000000000000000000000000000600052602260045260246000fd5b6000600282049050600182168061071a57607f821691505b60208210810361072d5761072c6106d3565b5b50919050565b60008190508160005260206000209050919050565b60006020601f8301049050919050565b600082821b905092915050565b6000600883026107957fffffffffffffffffffffffffffffffffffffffffffffffffffffffffffffffff82610758565b61079f8683610758565b95508019841693508086168417925050509392505050565b6000819050919050565b6000819050919050565b60006107e66107e16107dc846107b7565b6107c1565b6107b7565b9050919050565b6000819050919050565b610800836107cb565b61081461080c826107ed565b848454610765565b825550505050565b600090565b61082961081c565b6108348184846107f7565b505050565b5b818110156108585761084d600082610821565b60018101905061083a565b5050565b601f82111561089d5761086e81610733565b61087784610748565b81016020851015610886578190505b61089a61089285610748565b830182610839565b50505b505050565b600082821c905092915050565b60006108c0600019846008026108a2565b1980831691505092915050565b60006108d983836108af565b9150826002028217905092915050565b6108f282610699565b67ffffffffffffffff81111561090b5761090a6106a4565b5b6109158254610702565b61092082828561085c565b600060209050601f8311600181146109535760008415610941578287015190505b61094b85826108cd565b8655506109b3565b601f19841661096186610733565b60005b8281101561098957848901518255600182019150602085019450602081019050610964565b868310156109a657848901516109a2601f8916826108af565b8355505b6001600288020188555050505b505050505050565b600073ffffffffffffffffffffffffffffffffffffffff82169050919050565b60006109e6826109bb565b9050919050565b6109f6816109db565b82525050565b6000602082019050610a1160008301846109ed565b92915050565b7f4e487b7100000000000000000000000000000000000000000000000000000000600052601160045260246000fd5b60008160011c9050919050565b6000808291508390505b6001851115610a9d57808604811115610a7957610a78610a17565b5b6001851615610a885780820291505b8081029050610a9685610a46565b9450610a5d565b94509492505050565b600082610ab65760019050610b72565b81610ac45760009050610b72565b8160018114610ada5760028114610ae457610b13565b6001915050610b72565b60ff841115610af657610af5610a17565b5b8360020a915084821115610b0d57610b0c610a17565b5b50610b72565b5060208310610133831016604e8410600b8410161715610b485782820a905083811115610b4357610b42610a17565b5b610b72565b610b558484846001610a53565b92509050818404811115610b6c57610b6b610a17565b5b81810290505b9392505050565b600060ff82169050919050565b6000610b91826107b7565b9150610b9c83610b79565b9250610bc97fffffffffffffffffffffffffffffffffffffffffffffffffffffffffffffffff8484610aa6565b905092915050565b6000610bdc826107b7565b9150610be7836107b7565b9250828202610bf5816107b7565b91508282048414831517610c0c57610c0b610a17565b5b5092915050565b600082825260208201905092915050565b7f5472616e73666572207265737472696374656400000000000000000000000000600082015250565b6000610c5a601383610c13565b9150610c6582610c24565b602082019050919050565b60006020820190508181036000830152610c8981610c4d565b9050919050565b6000610c9b826107b7565b9150610ca6836107b7565b9250828201905080821115610cbe57610cbd610a17565b5b92915050565b610ccd816107b7565b82525050565b6000606082019050610ce860008301866109ed565b610cf56020830185610cc4565b610d026040830184610cc4565b949350505050565b6000602082019050610d1f6000830184610cc4565b92915050565b61170480610d346000396000f3fe608060405234801561001057600080fd5b50600436106101005760003560e01c8063715018a6116100975780639dc29fac116100665780639dc29fac1461029d578063a9059cbb146102b9578063dd62ed3e146102e9578063f2fde38b1461031957610100565b8063715018a61461023b5780638da5cb5b146102455780639281aa0b1461026357806395d89b411461027f57610100565b8063313ce567116100d3578063313ce567146101a15780633af32abf146101bf57806340c10f19146101ef57806370a082311461020b57610100565b806306fdde0314610105578063095ea7b31461012357806318160ddd1461015357806323b872dd14610171575b600080fd5b61010d610335565b60405161011a9190611214565b60405180910390f35b61013d600480360381019061013891906112cf565b6103c7565b60405161014a919061132a565b60405180910390f35b61015b6103ea565b6040516101689190611354565b60405180910390f35b61018b6004803603810190610186919061136f565b6103f4565b604051610198919061132a565b60405180910390f35b6101a9610423565b6040516101b691906113de565b60405180910390f35b6101d960048036038101906101d491906113f9565b61042c565b6040516101e6919061132a565b60405180910390f35b610209600480360381019061020491906112cf565b610482565b005b610225600480360381019061022091906113f9565b610524565b6040516102329190611354565b60405180910390f35b61024361056c565b005b61024d610580565b60405161025a9190611435565b60405180910390f35b61027d6004803603810190610278919061147c565b6105aa565b005b61028761065b565b6040516102949190611214565b60405180910390f35b6102b760048036038101906102b291906112cf565b6106ed565b005b6102d360048036038101906102ce91906112cf565b610703565b6040516102e0919061132a565b60405180910390f35b61030360048036038101906102fe91906114bc565b610726565b6040516103109190611354565b60405180910390f35b610333600480360381019061032e91906113f9565b6107ad565b005b6060600380546103449061152b565b80601f01602080910402602001604051908101604052809291908181526020018280546103709061152b565b80156103bd5780601f10610392576101008083540402835291602001916103bd565b820191906000526020600020905b8154815290600101906020018083116103a057829003601f168201915b5050505050905090565b6000806103d2610833565b90506103df81858561083b565b600191505092915050565b6000600254905090565b6000806103ff610833565b905061040c85828561084d565b6104178585856108e2565b60019150509392505050565b60006012905090565b6000600660008373ffffffffffffffffffffffffffffffffffffffff1673ffffffffffffffffffffffffffffffffffffffff16815260200190815260200160002060009054906101000a900460ff169050919050565b61048a6109d6565b600660008373ffffffffffffffffffffffffffffffffffffffff1673ffffffffffffffffffffffffffffffffffffffff16815260200190815260200160002060009054906101000a900460ff16610516576040517f08c379a000000000000000000000000000000000000000000000000000000000815260040161050d906115a8565b60405180910390fd5b6105208282610a5d565b5050565b60008060008373ffffffffffffffffffffffffffffffffffffffff1673ffffffffffffffffffffffffffffffffffffffff168152602001908152602001600020549050919050565b6105746109d6565b61057e6000610adf565b565b6000600560009054906101000a900473ffffffffffffffffffffffffffffffffffffffff16905090565b6105b26109d6565b80600660008473ffffffffffffffffffffffffffffffffffffffff1673ffffffffffffffffffffffffffffffffffffffff16815260200190815260200160002060006101000a81548160ff0219169083151502179055508173ffffffffffffffffffffffffffffffffffffffff167ff93f9a76c1bf3444d22400a00cb9fe990e6abe9dbb333fda48859cfee864543d8260405161064f919061132a565b60405180910390a25050565b60606004805461066a9061152b565b80601f01602080910402602001604051908101604052809291908181526020018280546106969061152b565b80156106e35780601f106106b8576101008083540402835291602001916106e3565b820191906000526020600020905b8154815290600101906020018083116106c657829003601f168201915b5050505050905090565b6106f56109d6565b6106ff8282610ba5565b5050565b60008061070e610833565b905061071b8185856108e2565b600191505092915050565b6000600160008473ffffffffffffffffffffffffffffffffffffffff1673ffffffffffffffffffffffffffffffffffffffff16815260200190815260200160002060008373ffffffffffffffffffffffffffffffffffffffff1673ffffffffffffffffffffffffffffffffffffffff16815260200190815260200160002054905092915050565b6107b56109d6565b600073ffffffffffffffffffffffffffffffffffffffff168173ffffffffffffffffffffffffffffffffffffffff16036108275760006040517f1e4fbdf700000000000000000000000000000000000000000000000000000000815260040161081e9190611435565b60405180910390fd5b61083081610adf565b50565b600033905090565b6108488383836001610c27565b505050565b60006108598484610726565b90507fffffffffffffffffffffffffffffffffffffffffffffffffffffffffffffffff8110156108dc57818110156108cc578281836040517ffb8f41b20000000000000000000000000000000000000000000000000000000081526004016108c3939291906115c8565b60405180910390fd5b6108db84848484036000610c27565b5b50505050565b600073ffffffffffffffffffffffffffffffffffffffff168373ffffffffffffffffffffffffffffffffffffffff16036109545760006040517f96c6fd1e00000000000000000000000000000000000000000000000000000000815260040161094b9190611435565b60405180910390fd5b600073ffffffffffffffffffffffffffffffffffffffff168273ffffffffffffffffffffffffffffffffffffffff16036109c65760006040517fec442f050000000000000000000000000000000000000000000000000000000081526004016109bd9190611435565b60405180910390fd5b6109d1838383610dfe565b505050565b6109de610833565b73ffffffffffffffffffffffffffffffffffffffff166109fc610580565b73ffffffffffffffffffffffffffffffffffffffff1614610a5b57610a1f610833565b6040517f118cdaa7000000000000000000000000000000000000000000000000000000008152600401610a529190611435565b60405180910390fd5b565b600073ffffffffffffffffffffffffffffffffffffffff168273ffffffffffffffffffffffffffffffffffffffff1603610acf5760006040517fec442f05000000000000000000000000000000000000000000000000000000008152600401610ac69190611435565b60405180910390fd5b610adb60008383610dfe565b5050565b6000600560009054906101000a900473ffffffffffffffffffffffffffffffffffffffff16905081600560006101000a81548173ffffffffffffffffffffffffffffffffffffffff021916908373ffffffffffffffffffffffffffffffffffffffff1602179055508173ffffffffffffffffffffffffffffffffffffffff168173ffffffffffffffffffffffffffffffffffffffff167f8be0079c531659141344cd1fd0a4f28419497f9722a3daafe3b4186f6b6457e060405160405180910390a35050565b600073ffffffffffffffffffffffffffffffffffffffff168273ffffffffffffffffffffffffffffffffffffffff1603610c175760006040517f96c6fd1e000000000000000000000000000000000000000000000000000000008152600401610c0e9190611435565b60405180910390fd5b610c2382600083610dfe565b5050565b600073ffffffffffffffffffffffffffffffffffffffff168473ffffffffffffffffffffffffffffffffffffffff1603610c995760006040517fe602df05000000000000000000000000000000000000000000000000000000008152600401610c909190611435565b60405180910390fd5b600073ffffffffffffffffffffffffffffffffffffffff168373ffffffffffffffffffffffffffffffffffffffff1603610d0b5760006040517f94280d62000000000000000000000000000000000000000000000000000000008152600401610d029190611435565b60405180910390fd5b81600160008673ffffffffffffffffffffffffffffffffffffffff1673ffffffffffffffffffffffffffffffffffffffff16815260200190815260200160002060008573ffffffffffffffffffffffffffffffffffffffff1673ffffffffffffffffffffffffffffffffffffffff168152602001908152602001600020819055508015610df8578273ffffffffffffffffffffffffffffffffffffffff168473ffffffffffffffffffffffffffffffffffffffff167f8c5be1e5ebec7d5bd14f71427d1e84f3dd0314c0f7b2291e5b200ac8c7c3b92584604051610def9190611354565b60405180910390a35b50505050565b600073ffffffffffffffffffffffffffffffffffffffff168373ffffffffffffffffffffffffffffffffffffffff1614158015610e685750600073ffffffffffffffffffffffffffffffffffffffff168273ffffffffffffffffffffffffffffffffffffffff1614155b15610f4f57600660008473ffffffffffffffffffffffffffffffffffffffff1673ffffffffffffffffffffffffffffffffffffffff16815260200190815260200160002060009054906101000a900460ff168015610f0f5750600660008373ffffffffffffffffffffffffffffffffffffffff1673ffffffffffffffffffffffffffffffffffffffff16815260200190815260200160002060009054906101000a900460ff165b610f4e576040517f08c379a0000000000000000000000000000000000000000000000000000000008152600401610f459061164b565b60405180910390fd5b5b610f5a838383610f5f565b505050565b600073ffffffffffffffffffffffffffffffffffffffff168373ffffffffffffffffffffffffffffffffffffffff1603610fb1578060026000828254610fa5919061169a565b92505081905550611084565b60008060008573ffffffffffffffffffffffffffffffffffffffff1673ffffffffffffffffffffffffffffffffffffffff1681526020019081526020016000205490508181101561103d578381836040517fe450d38c000000000000000000000000000000000000000000000000000000008152600401611034939291906115c8565b60405180910390fd5b8181036000808673ffffffffffffffffffffffffffffffffffffffff1673ffffffffffffffffffffffffffffffffffffffff16815260200190815260200160002081905550505b600073ffffffffffffffffffffffffffffffffffffffff168273ffffffffffffffffffffffffffffffffffffffff16036110cd578060026000828254039250508190555061111a565b806000808473ffffffffffffffffffffffffffffffffffffffff1673ffffffffffffffffffffffffffffffffffffffff168152602001908152602001600020600082825401925050819055505b8173ffffffffffffffffffffffffffffffffffffffff168373ffffffffffffffffffffffffffffffffffffffff167fddf252ad1be2c89b69c2b068fc378daa952ba7f163c4a11628f55a4df523b3ef836040516111779190611354565b60405180910390a3505050565b600081519050919050565b600082825260208201905092915050565b60005b838110156111be5780820151818401526020810190506111a3565b60008484015250505050565b6000601f19601f8301169050919050565b60006111e682611184565b6111f0818561118f565b93506112008185602086016111a0565b611209816111ca565b840191505092915050565b6000602082019050818103600083015261122e81846111db565b905092915050565b600080fd5b600073ffffffffffffffffffffffffffffffffffffffff82169050919050565b60006112668261123b565b9050919050565b6112768161125b565b811461128157600080fd5b50565b6000813590506112938161126d565b92915050565b6000819050919050565b6112ac81611299565b81146112b757600080fd5b50565b6000813590506112c9816112a3565b92915050565b600080604083850312156112e6576112e5611236565b5b60006112f485828601611284565b9250506020611305858286016112ba565b9150509250929050565b60008115159050919050565b6113248161130f565b82525050565b600060208201905061133f600083018461131b565b92915050565b61134e81611299565b82525050565b60006020820190506113696000830184611345565b92915050565b60008060006060848603121561138857611387611236565b5b600061139686828701611284565b93505060206113a786828701611284565b92505060406113b8868287016112ba565b9150509250925092565b600060ff82169050919050565b6113d8816113c2565b82525050565b60006020820190506113f360008301846113cf565b92915050565b60006020828403121561140f5761140e611236565b5b600061141d84828501611284565b91505092915050565b61142f8161125b565b82525050565b600060208201905061144a6000830184611426565b92915050565b6114598161130f565b811461146457600080fd5b50565b60008135905061147681611450565b92915050565b6000806040838503121561149357611492611236565b5b60006114a185828601611284565b92505060206114b285828601611467565b9150509250929050565b600080604083850312156114d3576114d2611236565b5b60006114e185828601611284565b92505060206114f285828601611284565b9150509250929050565b7f4e487b7100000000000000000000000000000000000000000000000000000000600052602260045260246000fd5b6000600282049050600182168061154357607f821691505b602082108103611556576115556114fc565b5b50919050565b7f526563697069656e74206e6f742077686974656c697374656400000000000000600082015250565b600061159260198361118f565b915061159d8261155c565b602082019050919050565b600060208201905081810360008301526115c181611585565b9050919050565b60006060820190506115dd6000830186611426565b6115ea6020830185611345565b6115f76040830184611345565b949350505050565b7f5472616e73666572207265737472696374656400000000000000000000000000600082015250565b600061163560138361118f565b9150611640826115ff565b602082019050919050565b6000602082019050818103600083015261166481611628565b9050919050565b7f4e487b7100000000000000000000000000000000000000000000000000000000600052601160045260246000fd5b60006116a582611299565b91506116b083611299565b92508282019050808211156116c8576116c761166b565b5b9291505056fea2646970667358221220200c73604c3351cdccbf7f0c91c795bed85cd675f603c643f9e314f64901727a64736f6c634300081c0033",
  "linkReferences": {},
  "deployedLinkReferences": {}
}